:030000000202F306
:0C02F300787FE4F6D8FD758107020263F5
:10028200E4F594F593F592F591F596F595F5B2F5B9
:06029200B1F5B4F5B32242
:100263001202821200031202D11200461200A712D8
:0F02730000301202981202AB1202BED2F880F0D5
:10024300E4FDFCE4FBFAC3EB9FEA9E50070BBB0003
:0F025300010A80F20DBD00010CBC13E7BD88E469
:010262002279
:1000ED00C282C281E4FEEFC4131313540124FF92A4
:1000FD0080EF25E0FFD2820000C2820EBE08E7D25B
:05010D00810000C28129
:0101120022CA
:10011300C285C284E4FEEFC4131313540124FF9277
:1001230083EF25E0FFD2850000C2850EBE08E7D22B
:05013300840000C284FD
:0101380022A4
:10013900C2E9C287E4FEEFC4131313540124FF92EA
:1001490086EF25E0FFD2E90000C2E90EBE08E7D23A
:05015900870000C287D1
:01015E00227E
:10015F00C2C1C2C2E4FEEFC4131313540124FF92B1
:10016F00EAEF25E0FFD2C10000C2C10EBE08E7D200
:05017F00C20000C2C235
:010184002258
:10018500C2E8C295E4FEEFC4131313540124FF9291
:1001950094EF25E0FFD2E80000C2E80EBE08E7D2E2
:0501A500950000C29569
:0101AA002232
:1001AB00C2A2C2A1E4FEEFC4131313540124FF92A5
:1001BB00A0EF25E0FFD2A20000C2A20EBE08E7D23C
:0501CB00A10000C2A12B
:0101D000220C
:1001D100C2A5C2A4E4FEEFC4131313540124FF9279
:1001E100A3EF25E0FFD2A50000C2A50EBE08E7D20D
:0501F100A40000C2A4FF
:0101F60022E6
:1001F700C2C3C2A7E4FEEFC4131313540124FF9232
:10020700A6EF25E0FFD2C30000C2C30EBE08E7D2A7
:05021700A70000C2A7D2
:01021C0022BF
:10021D00C2EFC2C5E4FEEFC4131313540124FF92C1
:10022D00C4EF25E0FFD2EF0000C2EF0EBE08E7D20B
:05023D00C50000C2C570
:010242002299
:10000300E4FF1200EDE4FF120113E4FF120139E4EF
:10001300FF12015FE4FF120185E4FF1201ABE4FF6D
:0D0023001201D1E4FF1201F7E4FF02021DFB
:0602FF008F9B539AFD22C3
:1002D100759A5075D7E075D6FE758E1475AF01D23B
:0202E100AF224A
:030043000202E3D3
:1002E300C0E0E59A30E006759B0A539AFED0E032EF
:1000A7007F067E001202437F7E7E001202FF7F14CE
:1000B7007E001202437F037E001202FF7F147E0040
:1000C7001202437F017E001202FF7F147E0012029C
:1000D700437F027E001202FF7F147E001202437FDD
:0600E700EF7E000202FFA3
:100046007F067E001202437F7E7E001202FF7F142F
:100056007E001202437F057E001202FF7F147E009F
:100066001202437F417E001202FF7F147E001202BD
:1000760043E4FFFE1202FF7F147E001202437F015B
:100086007E001202FF7F147E001202437F457E002F
:100096001202FF7F147E001202437FEF7E000202EF
:0100A600FF5A
:1000300020B40D7F1E7E0012024320B405D2F822A8
:03004000C2F822E1
:1002980020B20D7F1E7E0012024320B205D2F82242
:0302A800C2F82277
:1002AB0020B60D7F1E7E0012024320B605D2F82227
:0302BB00C2F82264
:1002BE0020B50D7F1E7E0012024320B505D2F82216
:0302CE00C2F82251
:00000001FF
