:03000000020BDB15
:0C0BDB00787FE4F6D8FD758140020C2202
:0E0EBB00120E85120CAB12000E120D0480F800
:100D3000C282C281E4FEEFC4131313540124FF9254
:100D400080EF25E0FFD2820000C2820EBE08E7D20B
:050D5000810000C281DA
:010D5500227B
:100D5600C285C284E4FEEFC4131313540124FF9228
:100D660083EF25E0FFD2850000C2850EBE08E7D2DC
:050D7600840000C284AE
:010D7B002255
:100D7C00C290C287E4FEEFC4131313540124FF92F4
:100D8C0086EF25E0FFD2900000C2900EBE08E7D29D
:050D9C00870000C28782
:010DA100222F
:100DA200C293C292E4FEEFC4131313540124FF92C0
:100DB20091EF25E0FFD2930000C2930EBE08E7D266
:050DC200920000C29246
:010DC7002209
:100DC800C296C295E4FEEFC4131313540124FF9294
:100DD80094EF25E0FFD2960000C2960EBE08E7D237
:050DE800950000C2951A
:010DED0022E3
:100DEE00C2A2C2A1E4FEEFC4131313540124FF9256
:100DFE00A0EF25E0FFD2A20000C2A20EBE08E7D2ED
:050E0E00A10000C2A1DB
:010E130022BC
:100E1400C2A5C2A4E4FEEFC4131313540124FF9229
:100E2400A3EF25E0FFD2A50000C2A50EBE08E7D2BD
:050E3400A40000C2A4AF
:010E39002296
:100E3A00C2C3C2A7E4FEEFC4131313540124FF92E2
:100E4A00A6EF25E0FFD2C30000C2C30EBE08E7D258
:050E5A00A70000C2A783
:010E5F002270
:100CD80043BB1043BB20C2C8C2C5E4FEEFC4131314
:100CE80013540124FF92C4EF25E0FFD2C80000C2CC
:0B0CF800C80EBE08E7D2C50000C2C550
:010D030022CD
:100CAB00E4FF120D30E4FF120D56E4FF120D7CE44D
:100CBB00FF120DA2E4FF120DC8E4FF120DEEE4FFCC
:0D0CCB00120E14E4FF120E3AE4FF020CD8E2
:10000E007FFF120D307FFF120D567FFF120D7C7F8A
:10001E00FF120DA27FFF120DC87FFF120DEE7FFFA4
:10002E00120E147FFF120E3A7FFF120CD87FFE12B3
:10003E000D307F1E7E00120EA17FFD120D307F1E31
:10004E007E00120EA17FFB120D307F1E7E00120E5F
:10005E00A17FF7120D307F1E7E00120EA17FEF12D0
:10006E000D307F1E7E00120EA17FDF120D307F1E1F
:10007E007E00120EA17FBF120D307F1E7E00120E6B
:10008E00A17F7F120D307F1E7E00120EA17FFF1208
:10009E000D307FFE120D567F1E7E00120EA17FFDCB
:1000AE00120D567F1E7E00120EA17FFB120D567F83
:1000BE001E7E00120EA17FF7120D567F1E7E0012BD
:1000CE000EA17FEF120D567F1E7E00120EA17FDF56
:1000DE00120D567F1E7E00120EA17FBF120D567F8F
:1000EE001E7E00120EA17F7F120D567F1E7E001205
:1000FE000EA17FFF120D567FFE120D7C7F1E7E001D
:10010E00120EA17FFD120D7C7F1E7E00120EA17FAE
:10011E00FB120D7C7F1E7E00120EA17FF7120D7C4E
:10012E007F1E7E00120EA17FEF120D7C7F1E7E00C1
:10013E00120EA17FDF120D7C7F1E7E00120EA17F9C
:10014E00BF120D7C7F1E7E00120EA17F7F120D7CD2
:10015E007F1E7E00120EA17FFF120D7C7FFE120D00
:10016E00A27F1E7E00120EA17FFD120DA27F1E7EAB
:10017E0000120EA17FFB120DA27F1E7E00120EA199
:10018E007FF7120DA27F1E7E00120EA17FEF120DC1
:10019E00A27F1E7E00120EA17FDF120DA27F1E7E99
:1001AE0000120EA17FBF120DA27F1E7E00120EA1A5
:1001BE007F7F120DA27F1E7E00120EA17FFF120DF9
:1001CE00A27FFE120DC87F1E7E00120EA17FFD12B1
:1001DE000DC87F1E7E00120EA17FFB120DC87F1E62
:1001EE007E00120EA17FF7120DC87F1E7E00120E2A
:1001FE00A17FEF120DC87F1E7E00120EA17FDF12AF
:10020E000DC87F1E7E00120EA17FBF120DC87F1E6D
:10021E007E00120EA17F7F120DC87F1E7E00120E71
:10022E00A17FFF120DC87FFE120DEE7F1E7E001203
:10023E000EA17FFD120DEE7F1E7E00120EA17FFB22
:10024E00120DEE7F1E7E00120EA17FF7120DEE7FB5
:10025E001E7E00120EA17FEF120DEE7F1E7E00128B
:10026E000EA17FDF120DEE7F1E7E00120EA17FBF4C
:10027E00120DEE7F1E7E00120EA17F7F120DEE7FFD
:10028E001E7E00120EA17FFF120DEE7FFE120E14C7
:10029E007F1E7E00120EA17FFD120E147F1E7E00A9
:1002AE00120EA17FFB120E147F1E7E00120EA17F76
:1002BE00F7120E147F1E7E00120EA17FEF120E1487
:1002CE007F1E7E00120EA17FDF120E147F1E7E0097
:1002DE00120EA17FBF120E147F1E7E00120EA17F82
:1002EE007F120E147F1E7E00120EA17FFF120E14BF
:1002FE007FFE120E3A7F1E7E00120EA17FFD120EA1
:10030E003A7F1E7E00120EA17FFB120E3A7F1E7EDA
:10031E0000120EA17FF7120E3A7F1E7E00120EA162
:10032E007FEF120E3A7F1E7E00120EA17FDF120E9D
:10033E003A7F1E7E00120EA17FBF120E3A7F1E7EE6
:10034E0000120EA17F7F120E3A7F1E7E00120EA1AA
:10035E007FFF120E3A7FFE120CD87F1E7E00120E09
:10036E00A17FFD120CD87F1E7E00120EA17FFB1204
:10037E000CD87F1E7E00120EA17FF7120CD87F1EA6
:10038E007E00120EA17FEF120CD87F1E7E00120E81
:10039E00A17FDF120CD87F1E7E00120EA17FBF122E
:1003AE000CD87F1E7E00120EA17F7F120CD87F1EEE
:0A03BE007E00120EA17FFF020CD892
:1003C8001702170318031902150316031703170357
:1003D8001703180319021603170318021803170343
:1003E8001502180317031802100315031602150344
:1003F800160317021703180319021A031B031F0316
:100408001F0317031803190216031703180317030A
:1004180018031F031F0216031703180317031803F3
:10042800200320021F031B031F6620032103200350
:100438001F031B031F661F031B031903190315035F
:100448001A661A031903150315031703166617040A
:100458001804180319031F031B031F662003210335
:1004680020031F031B031F661F031B031903190324
:1004780015031A661A03190319031F031B031F0028
:100488001A031A031A031B031B031A03190319027D
:100498001703151715031603170318031704180E67
:1004A80018031704180E1866170318031703180300
:1004B800200320021F031B031F66200321032003C0
:1004C8001F031B031F661F041B0E1B0319031903BD
:1004D80015031A661A03190315031503170316667D
:1004E80017041804180319031F031B031F662003AE
:1004F800210320031F031B031F661F031B0319038C
:10050800190315031A661A03190319031F031B039A
:100518001F00180218031A03190D1503150218668F
:1005280016021702150000000F01150216021766C1
:1005380018031702150216011502100215000F0103
:100548001502160217021703180319021502186676
:1005580017031902160317031600170119021B02C5
:100568001B701A031A01190219031A031B021A0D28
:10057800190317001866180319021A02190C180D26
:10058800170316011102110310030F0C10021500B6
:100598001F011A01186619031A011B021B031B030A
:1005A8001B0C1A0D190317001F011A0118661903ED
:1005B8001A011002100310031A0C180D1703160065
:1005C8000F011502160217701803170215031503F9
:1005D8001666160316021603150310021001110100
:1005E800116610030F0C1A02190216031603186677
:1005F800180318021703160319000000170316033F
:100608001701160317031603150110031503160225
:10061800160D1703160315031003100E15040F010A
:100628001703160317011603170316031501100302
:1006380015031602160D17031603150310031503E9
:1006480016011703160317011603170316031501DE
:10065800100315031602160D1703160315031003CE
:10066800100E15040F0117031903190119031A03B2
:1006780019031701160316031602160D170316039E
:1006880015031003100D1500190319031A031F038E
:100698001B031B031A03170D16031603160D170168
:1006A8001703170319031A021A021003170D16036A
:1006B8001601170319031903170319021F021B0355
:1006C8001A031A0E1B0417021A031A031A0E1B0424
:1006D8001A03190317031603170D16031703190135
:1006E800190319031A031F031B031B031A03170D0E
:1006F80016031603160317011703170319031A0223
:100708001A021003170D160316011703190319030C
:10071800170319031F021B031A031A0E1B041702DF
:100728001A031A031A0E1B0417161A031A031A0EB1
:100738001B041A031903170316030F0210031500ED
:1007480000000106011501260137014A015D01710A
:100758000188019F01B801D201EE000204050709D2
:080768000B01020408102040FF
:03000300013C00BD
:100E8500C2B7753EFF7540FF853E8D85408B438912
:0C0E950011D2A9C2ABC28CC28ED2AF2217
:03000B00020E6082
:040E6000C0E0C0D05E
:100E6400B2B7853D8C853F8A053BE53BB4640D757F
:0C0E74003B00053CE53CB40503753C0068
:050E8000D0D0D0E032EB
:100770007BFF750C00750D03750E01750F68E4FDA8
:080780008B088A09890A8D0B20
:10078800E4F528E528250BFFD3940B401A74F42FC1
:1007980025E0244AF582E43407F58374019325E0C3
:1007A800FFE49333FE8013EF25E0244AF582E43416
:1007B80007F583E493FE740193FFE52825E02410F0
:1007C800F8A60608A607E50D6401450C7018E5288B
:1007D80025E02410F8C000E6FE08E67802CEC31330
:1007E800CE13D8F9801EE50D6403450C701CE5286E
:1007F80025E02410F8C000E6FE08E67802C333CEF0
:1008080033CED8F9D000A60608F60528E528640CEA
:10081800600302078BE4F533F534AB08AA09A90A8B
:10082800853482853383120A3C600D74022534F5C1
:1008380034E43533F53380E2E4F529F52AAB08AA28
:1008480009A90A852A82852983120A3CF535E52AF1
:100858002401FFE435298F82F583120A3CF536AC72
:100868000EAD0F7E2E7FE0120A698E2B8F2CE52CA1
:100878007802CEC313CE13D8F9F5328E317802C37D
:1008880033CE33CED8F9FF7C007D05120A69C3E563
:10089800329FF532E5319EF531C28CD28EC3E52AFE
:1008A8009534E52995334003020A39E53575F00A90
:1008B8008485F037E53575F00A8475F00A84ADF063
:1008C800E53575F06484FFE537900761932F25E0DF
:1008D8002410F8E6FE08E6FFE5376047BD010BEF98
:1008E8007802CEC313CE13D8F9FFBD030BEF7802FD
:1008F800C333CE33CED8F9FFAB07AA06E4F9F87FA5
:10090800507EC3FDFC120C67E47B0AFAF9F8120A60
:10091800BEC3E49FFFE49EF53D8F3FF58CE53F2481
:100928000CF58AE53675F00A84E5F090076993F5C9
:1009380038E53675F00A8475F00A8485F039E536AD
:1009480075F06484F53AE538FD7C00AE2BAF2C12C7
:100958000A69AB07AA06E53AB4010BEAC313FEEB32
:10096800132BFBEE3AFAE5396401603DE539702E48
:10097800E538D39404500DC3EB9532F52EEA953142
:10098800F52D8029EBAE027802C333CE33CED8F9E9
:10099800FF7C007D05120A698E2D8F2E800FEAC319
:1009A80013F52DEB13F52E80048A2D8B2EE5377069
:1009B80004F52DF52EC3EB952EF530EA952DF52F80
:1009C800E537601BD28C852E28E528D39400400F8C
:1009D800308FFD853E8D85408BC28F152880EAE5D6
:1009E80030452F601DC28CC2B7853028E528D394C6
:1009F80000400F308FFD853E8D85408BC28F1528B6
:100A080080EA7402252AF52AE43529F529AB08AAD3
:100A180009A90A852A82F583120A3CF535E52A24B4
:100A280001FFE435298F82F583120A3CF536020866
:030A3800A5C2B79D
:010A3B002298
:100D04007A0379C81207707FF47E01120EA17A0566
:100D140079301207707FF47E01120EA17BFF7A06F0
:0C0D240079041207727FF47E01020EA118
:080EC9007F107E93DEFEDFFCCA
:010ED10022FE
:040EA100AD07AC06E7
:100EA5007B017A00D3EB9DEA9C500A120EC90BBB5D
:050EB50000010A80EFBE
:010EBA002215
:100BE700020EBBE493A3F8E493A34003F68001F25B
:100BF70008DFF48029E493A3F85407240CC8C3330F
:100C0700C4540F4420C8834004F456800146F6DFDD
:100C1700E4800B0102040810204080900003E47E6A
:100C2700019360BCA3FF543F30E509541FFEE493D2
:100C3700A360010ECF54C025E060A840B8E493A399
:100C4700FAE493A3F8E493A3C8C582C8CAC583CAC4
:100C5700F0A3C8C582C8CAC583CADFE9DEE780BE7C
:0100060000F9
:100A3C00BB010CE58229F582E5833AF583E022506F
:100A4C0006E92582F8E622BBFE06E92582F8E222B9
:0D0A5C00E58229F582E5833AF583E49322D3
:100A6900BC000BBE0029EF8DF084FFADF022E4CC71
:100A7900F875F008EF2FFFEE33FEEC33FCEE9DEC3A
:100A8900984005FCEE9DFE0FD5F0E9E4CEFD22ED80
:100A9900F8F5F0EE8420D21CFEADF075F008EF2FCA
:100AA900FFED33FD4007985006D5F0F222C398FDBB
:050AB9000FD5F0EA2258
:100ABE00E88FF0A4CC8BF0A42CFCE98EF0A42CFCD7
:100ACE008AF0EDA42CFCEA8EF0A4CDA8F08BF0A455
:100ADE002DCC3825F0FDE98FF0A42CCD35F0FCEBB4
:100AEE008EF0A4FEA9F0EB8FF0A4CFC5F02ECD3979
:0F0AFE00FEE43CFCEAA42DCE35F0FDE43CFC22E6
:100C6700C2D5E830E70FB2D5E4C39BFBE49AFAE4B8
:100C770099F9E498F8EC30E717B2D5120C9D120BEE
:100C870049E4C39BFBE49AFAE499F9E498F88003F2
:100C9700120B4930D50DE4C39FFFE49EFEE49DFD92
:040CA700E49CFC22AB
:100B0D0075F008758200EF2FFFEE33FECD33CDCC9F
:100B1D0033CCC58233C5829BED9AEC99E582984022
:100B2D000CF582EE9BFEED9AFDEC99FC0FD5F0D6FF
:100B3D00E4CEFBE4CDFAE4CCF9A88222B800C1B929
:100B4D000059BA002DEC8BF084CFCECDFCE5F0CB67
:100B5D00F97818EF2FFFEE33FEED33FDEC33FCEBA0
:100B6D0033FB10D703994004EB99FB0FD8E5E4F95B
:100B7D00FA227818EF2FFFEE33FEED33FDEC33FC48
:100B8D00C933C910D7059BE99A4007EC9BFCE99A3C
:100B9D00F90FD8E0E4C9FAE4CCFB2275F010EF2F81
:100BAD00FFEE33FEED33FDCC33CCC833C810D70781
:100BBD009BEC9AE899400AED9BFDEC9AFCE899F8BC
:0E0BCD000FD5F0DAE4CDFBE4CCFAE4C8F9224F
:00000001FF
