:030000000200A358
:0C00A300787FE4F6D8FD7581070200B8F4
:0800B8001200C012000380FBDE
:10006300C282C281E4FEEFC4131313540124FF922E
:1000730080EF25E0FFD2820000C2820EBE08E7D2E5
:05008300810000C281B4
:010088002255
:0500C000E4FF020063F3
:100003007F011200637F2C7E011200897F021200A0
:10001300637F2C7E011200897F041200637F2C7E94
:10002300011200897F081200637F2C7E0112008970
:100033007F1F1200637F2C7E011200897F2F120025
:10004300637F2C7E011200897F4F1200637F2C7E19
:10005300011200897F8F1200637F2C7E01020089C9
:0800AF007F107E93DEFEDFFCF2
:0100B7002226
:04008900AD07AC060D
:10008D007B017A00D3EB9DEA9C500A1200AF0BBBAB
:05009D0000010A80EFE4
:0100A200223B
:00000001FF
