:0300000002056096
:0C056000787FE4F6D8FD75810702057570
:080575001203BD12000380FB1C
:10041600C282C281E4FEEFC4131313540124FF9277
:1004260080EF25E0FFD2820000C2820EBE08E7D22E
:05043600810000C281FD
:01043B00229E
:10043C00C285C284E4FEEFC4131313540124FF924B
:10044C0083EF25E0FFD2850000C2850EBE08E7D2FF
:05045C00840000C284D1
:010461002278
:10046200C290C287E4FEEFC4131313540124FF9217
:1004720086EF25E0FFD2900000C2900EBE08E7D2C0
:05048200870000C287A5
:010487002252
:10048800C293C292E4FEEFC4131313540124FF92E3
:1004980091EF25E0FFD2930000C2930EBE08E7D289
:0504A800920000C29269
:0104AD00222C
:1004AE00C296C295E4FEEFC4131313540124FF92B7
:1004BE0094EF25E0FFD2960000C2960EBE08E7D25A
:0504CE00950000C2953D
:0104D3002206
:1004D400C2A2C2A1E4FEEFC4131313540124FF9279
:1004E400A0EF25E0FFD2A20000C2A20EBE08E7D210
:0504F400A10000C2A1FF
:0104F90022E0
:1004FA00C2A5C2A4E4FEEFC4131313540124FF924D
:10050A00A3EF25E0FFD2A50000C2A50EBE08E7D2E0
:05051A00A40000C2A4D2
:01051F0022B9
:10052000C2C3C2A7E4FEEFC4131313540124FF9205
:10053000A6EF25E0FFD2C30000C2C30EBE08E7D27B
:05054000A70000C2A7A6
:010545002293
:1003EA0043BB1043BB20C2C8C2C5E4FEEFC413130B
:1003FA0013540124FF92C4EF25E0FFD2C80000C2C3
:0B040A00C80EBE08E7D2C50000C2C546
:0104150022C4
:1003BD00E4FF120416E4FF12043CE4FF120462E4AD
:1003CD00FF120488E4FF1204AEE4FF1204D4E4FF2C
:0D03DD001204FAE4FF120520E4FF0203EA17
:100003007FFF1204167FFF12043C7FFF1204627FFE
:10001300FF1204887FFF1204AE7FFF1204D47FFF18
:100023001204FA7FFF1205207FFF1203EA7FFE12FC
:1000330004167F1E7E001205467FFD1204167F1EE6
:100043007E001205467FFB1204167F1E7E001205FA
:10005300467FF71204167F1E7E001205467FEF12BD
:1000630004167F1E7E001205467FDF1204167F1ED4
:100073007E001205467FBF1204167F1E7E00120506
:10008300467F7F1204167F1E7E001205467FFF12F5
:1000930004167FFE12043C7F1E7E001205467FFD80
:1000A30012043C7F1E7E001205467FFB12043C7F38
:1000B3001E7E001205467FF712043C7F1E7E00124F
:1000C30005467FEF12043C7F1E7E001205467FDF4C
:1000D30012043C7F1E7E001205467FBF12043C7F44
:1000E3001E7E001205467F7F12043C7F1E7E001297
:1000F30005467FFF12043C7FFE1204627F1E7E00D2
:100103001205467FFD1204627F1E7E001205467FA4
:10011300FB1204627F1E7E001205467FF712046203
:100123007F1E7E001205467FEF1204627F1E7E0053
:100133001205467FDF1204627F1E7E001205467F92
:10014300BF1204627F1E7E001205467F7F12046287
:100153007F1E7E001205467FFF1204627FFE12049B
:10016300887F1E7E001205467FFD1204887F1E7E57
:10017300001205467FFB1204887F1E7E001205468F
:100183007FF71204887F1E7E001205467FEF12045C
:10019300887F1E7E001205467FDF1204887F1E7E45
:1001A300001205467FBF1204887F1E7E001205469B
:1001B3007F7F1204887F1E7E001205467FFF120494
:1001C300887FFE1204AE7F1E7E001205467FFD125D
:1001D30004AE7F1E7E001205467FFB1204AE7F1E17
:1001E3007E001205467FF71204AE7F1E7E001205C5
:1001F300467FEF1204AE7F1E7E001205467FDF129C
:1002030004AE7F1E7E001205467FBF1204AE7F1E22
:100213007E001205467F7F1204AE7F1E7E0012050C
:10022300467FFF1204AE7FFE1204D47F1E7E0012AF
:1002330005467FFD1204D47F1E7E001205467FFB18
:100243001204D47F1E7E001205467FF71204D47F6A
:100253001E7E001205467FEF1204D47F1E7E00121D
:1002630005467FDF1204D47F1E7E001205467FBF42
:100273001204D47F1E7E001205467F7F1204D47FB2
:100283001E7E001205467FFF1204D47FFE1204FA7D
:100293007F1E7E001205467FFD1204FA7F1E7E003C
:1002A3001205467FFB1204FA7F1E7E001205467F6D
:1002B300F71204FA7F1E7E001205467FEF1204FA3E
:1002C3007F1E7E001205467FDF1204FA7F1E7E002A
:1002D3001205467FBF1204FA7F1E7E001205467F79
:1002E3007F1204FA7F1E7E001205467FFF1204FA76
:1002F3007FFE1205207F1E7E001205467FFD12053C
:10030300207F1E7E001205467FFB1205207F1E7E86
:10031300001205467FF71205207F1E7E0012054658
:100323007FEF1205207F1E7E001205467FDF120538
:10033300207F1E7E001205467FBF1205207F1E7E92
:10034300001205467F7F1205207F1E7E00120546A0
:100353007FFF1205207FFE1203EA7F1E7E00120537
:10036300467FFD1203EA7F1E7E001205467FFB12C5
:1003730003EA7F1E7E001205467FF71203EA7F1E03
:100383007E001205467FEF1203EA7F1E7E001205F0
:10039300467FDF1203EA7F1E7E001205467FBF12EF
:1003A30003EA7F1E7E001205467F7F1203EA7F1E4B
:0A03B3007E001205467FFF0203EAF8
:08056C007F107E93DEFEDFFC30
:010574002264
:04054600AD07AC064B
:10054A007B017A00D3EB9DEA9C500A12056C0BBB27
:05055A0000010A80EF22
:01055F002279
:00000001FF
