:0300000002057F77
:0C057F00787FE4F6D8FD75810702058B3B
:0B058B001203BD12000312054080F8AF
:1003EA00C282C281E4FEEFC4131313540124FF92A4
:1003FA0080EF25E0FFD2820000C2820EBE08E7D25B
:05040A00810000C28129
:01040F0022CA
:10041000C285C284E4FEEFC4131313540124FF9277
:1004200083EF25E0FFD2850000C2850EBE08E7D22B
:05043000840000C284FD
:0104350022A4
:10043600C290C287E4FEEFC4131313540124FF9243
:1004460086EF25E0FFD2900000C2900EBE08E7D2EC
:05045600870000C287D1
:01045B00227E
:10045C00C293C292E4FEEFC4131313540124FF920F
:10046C0091EF25E0FFD2930000C2930EBE08E7D2B5
:05047C00920000C29295
:010481002258
:10048200C296C295E4FEEFC4131313540124FF92E3
:1004920094EF25E0FFD2960000C2960EBE08E7D286
:0504A200950000C29569
:0104A7002232
:1004A800C2A2C2A1E4FEEFC4131313540124FF92A5
:1004B800A0EF25E0FFD2A20000C2A20EBE08E7D23C
:0504C800A10000C2A12B
:0104CD00220C
:1004CE00C2A5C2A4E4FEEFC4131313540124FF9279
:1004DE00A3EF25E0FFD2A50000C2A50EBE08E7D20D
:0504EE00A40000C2A4FF
:0104F30022E6
:1004F400C2C3C2A7E4FEEFC4131313540124FF9232
:10050400A6EF25E0FFD2C30000C2C30EBE08E7D2A7
:05051400A70000C2A7D2
:0105190022BF
:10051A00C2C8C2C5E4FEEFC4131313540124FF92E8
:10052A00C4EF25E0FFD2C80000C2C80EBE08E7D259
:05053A00C50000C2C570
:01053F002299
:1003BD00E4FF1203EAE4FF120410E4FF120436E432
:1003CD00FF12045CE4FF120482E4FF1204A8E4FFB0
:0D03DD001204CEE4FF1204F4E4FF02051A3E
:100003007FFF1203EA7FFF1204107FFF1204367F83
:10001300FF12045C7FFF1204827FFF1204A87FFF9C
:100023001204CE7FFF1204F47FFF12051A7FFE1223
:1000330003EA7F2C7E011205657FFD1203EA7F2C04
:100043007E011205657FFB1203EA7F2C7E011205F8
:10005300657FF71203EA7F2C7E011205657FEF129D
:1000630003EA7F2C7E011205657FDF1203EA7F2CF2
:100073007E011205657FBF1203EA7F2C7E01120504
:10008300657F7F1203EA7F2C7E011205657FFF12D5
:1000930003EA7FFE1204107F2C7E011205657FFDAB
:1000A3001204107F2C7E011205657FFB1204107F62
:1000B3002C7E011205657FF71204107F2C7E01123E
:1000C30005657FEF1204107F2C7E011205657FDF2B
:1000D3001204107F2C7E011205657FBF1204107F6E
:1000E3002C7E011205657F7F1204107F2C7E011286
:1000F30005657FFF1204107FFE1204367F2C7E01FC
:100103001205657FFD1204367F2C7E011205657F83
:10011300FB1204367F2C7E011205657FF71204362D
:100123007F2C7E011205657FEF1204367F2C7E0142
:100133001205657FDF1204367F2C7E011205657F71
:10014300BF1204367F2C7E011205657F7F120436B1
:100153007F2C7E011205657FFF1204367FFE120499
:100163005C7F2C7E011205657FFD12045C7F2C7E73
:10017300011205657FFB12045C7F2C7E011205656D
:100183007FF712045C7F2C7E011205657FEF12045A
:100193005C7F2C7E011205657FDF12045C7F2C7E61
:1001A300011205657FBF12045C7F2C7E0112056579
:1001B3007F7F12045C7F2C7E011205657FFF120492
:1001C3005C7FFE1204827F2C7E011205657FFD1287
:1001D30004827F2C7E011205657FFB1204827F2C33
:1001E3007E011205657FF71204827F2C7E011205C2
:1001F300657FEF1204827F2C7E011205657FDF127B
:1002030004827F2C7E011205657FBF1204827F2C3E
:100213007E011205657F7F1204827F2C7E01120509
:10022300657FFF1204827FFE1204A87F2C7E0112D9
:1002330005657FFD1204A87F2C7E011205657FFBF7
:100243001204A87F2C7E011205657FF71204A87F94
:100253002C7E011205657FEF1204A87F2C7E01120C
:1002630005657FDF1204A87F2C7E011205657FBF21
:100273001204A87F2C7E011205657F7F1204A87FDC
:100283002C7E011205657FFF1204A87FFE1204CEA7
:100293007F2C7E011205657FFD1204CE7F2C7E012B
:1002A3001205657FFB1204CE7F2C7E011205657F4C
:1002B300F71204CE7F2C7E011205657FEF1204CE68
:1002C3007F2C7E011205657FDF1204CE7F2C7E0119
:1002D3001205657FBF1204CE7F2C7E011205657F58
:1002E3007F1204CE7F2C7E011205657FFF1204CEA0
:1002F3007FFE1204F47F2C7E011205657FFD12043C
:10030300F47F2C7E011205657FFB1204F47F2C7EA3
:10031300011205657FF71204F47F2C7E0112056537
:100323007FEF1204F47F2C7E011205657FDF120438
:10033300F47F2C7E011205657FBF1204F47F2C7EAF
:10034300011205657F7F1204F47F2C7E011205657F
:100353007FFF1204F47FFE12051A7F2C7E01120523
:10036300657FFD12051A7F2C7E011205657FFB1246
:10037300051A7F2C7E011205657FF712051A7F2C63
:100383007E011205657FEF12051A7F2C7E0112058F
:10039300657FDF12051A7F2C7E011205657FBF1270
:1003A300051A7F2C7E011205657F7F12051A7F2CAB
:0A03B3007E011205657FFF02051AA6
:100540007F1E7E00120565C2B77F1E7E0012056504
:10055000D2B77F1E7E00120565C2B77F1E7E0012D5
:050560000565D2B72281
:080596007F107E93DEFEDFFC06
:01059E00223A
:04056500AD07AC062C
:100569007B017A00D3EB9DEA9C500A1205960BBBDE
:0505790000010A80EF03
:01057E00225A
:00000001FF
